S00D0000536C6176652E737265631C
S11300000C942A000C9447000C9447000C9447006D
S11300100C9447000C9447000C9447000C94470040
S11300200C9447000C9447000C9447000C94470030
S11300300C942C010C9447000C9447000C9447003A
S11300400C9447000C9447000C9447000C94470010
S11300500C94470011241FBECFE5D8E0DEBFCDBF0E
S113006020E0A6E6B0E001C01D92AD36B207E1F78C
S113007010E0A0E6B0E0E0EEF4E002C005900D92DE
S1130080A636B107D9F70E940E010C946E020C94A7
S113009000009BB39F70282F207F922B9BBB9BB3A8
S11300A09E7F9BBB9BB39D7F9BBB9BB394609BBB81
S11300B000009BB39B7F9BBB36E03A95F1F700C0F1
S11300C02BB330E1839FC0011124922F9F70892BA1
S11300D08BBB8BB384608BBB00008BB38B7F8BBBE0
S11300E008959BB39F70282F207F922B9BBB9BB3BB
S11300F091609BBB9BB39D7F9BBB9BB394609BBB5D
S113010000009BB39B7F9BBB2BB330E1839FC0015B
S11301101124922F9F70892B8BBB8BB384608BBB74
S113012000008BB38B7F8BBB08958FEF8ABB8BB39F
S11301308B7F8BBB83EF91E00197F1F700C0000048
S113014083E30E94490091E29A95F1F7000082E36B
S11301500E94490081E28A95F1F7000088E20E943A
S1130160490091E29A95F1F700008EE00E9449005F
S113017081E28A95F1F7000081E00E94490083EF53
S113018091E00197F1F700C0000086E00E94490069
S113019091E29A95F1F700000895CF93DF9300D090
S11301A000D0CDB7DEB790E8998390EC9A8394E9B8
S11301B09B8394ED9C83E62FF0E0319721E030E0BF
S11301C02C0F3D1FE20FF31F9081890F81500E9475
S11301D0490031E23A95F1F700000F900F900F902B
S11301E00F90DF91CF9108950F931F93CF938C01BC
S11301F0C0E003C00E947100CF5FF801EC0FF11D55
S113020080818111F7CFCF911F910F9108958DB106
S1130210836C8DB987B3806487BB08958DE090E0CB
S11302200E944D0190936800809367000E9495009E
S11302300E9407017894809166008D30E0F361E0BC
S113024081E00E94CD0080916700909168000E9437
S1130250F40010926600EFCF1F920F920FB60F9228
S113026011248F93EF93FF93809166008D3068F48F
S1130270E0916700F0916800E80FF11D8FB1808371
S1130280809166008F5F80936600FF91EF918F915C
S11302900F900FBE0F901F9018950F931F93CF933D
S11302A0DF938230910510F482E090E0E0916B00DE
S11302B0F0916C0020E030E0A0E0B0E0309719F15C
S11302C0408151810281138148175907C8F084176E
S11302D0950769F4109731F012960C9312971396C0
S11302E01C9327C000936B0010936C0022C021154F
S11302F0310519F04217530718F49A01BD01EF01B3
S1130300DF01F801DBCF21153105F9F0281B390B8A
S11303102430310580F48A819B816115710521F0B7
S1130320FB019383828304C090936C0080936B00E1
S1130330FE01329644C0FE01E20FF31F81939193B4
S113034022503109398328833AC0209169003091C1
S11303506A00232B41F420916200309163003093B2
S11303606A0020936900209160003091610021159A
S1130370310541F42DB73EB74091640050916500BA
S1130380241B350BE0916900F0916A00E217F30732
S1130390A0F42E1B3F0B2817390778F0AC014E5FF1
S11303A05F4F2417350748F04E0F5F1F50936A00C4
S11303B0409369008193919302C0E0E0F0E0CF01A3
S11303C0DF91CF911F910F910895CF93DF93009701
S11303D009F481C0FC01329713821282A0916B0050
S11303E0B0916C00109781F420813181820F931FAA
S11303F02091690030916A002817390751F5F0936C
S11304006A00E093690067C0ED0120E030E0CE1798
S1130410DF0740F44A815B819E0141155105F1F0EB
S1130420EA01F5CFD383C28340815181840F951FA4
S1130430C817D90759F488819981840F951F0296AA
S1130440918380838A819B819383828321153105E3
S113045029F4F0936C00E0936B003DC0E901FB8349
S1130460EA8349915991C40FD51FEC17FD0761F434
S113047080819181840F951F0296E9019983888375
S1130480828193819B838A83E0E0F0E012968D91D0
S11304909C911397009719F0FD01DC01F7CF8D9122
S11304A09C9111979D012E5F3F4F820F931F2091C6
S11304B0690030916A002817390769F4309729F4E4
S11304C010926C0010926B0002C013821282B093DF
S11304D06A00A0936900DF91CF910895F894FFCF4B
S10904E000006D00200085
S9030000FC
