S00E00004D61737465722E73726563AA
S11300000C942A000C943F000C943F000C943F0085
S11300100C943F000C943F000C943F000C943F0060
S11300200C943F000C943F000C943F000C943F0050
S11300300C943F000C943F000C943F000C943F0040
S11300400C943F000C943F000C943F000C943F0030
S11300500C943F0011241FBECFE5D8E0DEBFCDBF16
S113006010E0A0E6B0E0E6EFF0E002C005900D92EB
S1130070AE36B107D9F70E9450000C9479000C9465
S113008000008DB1836D8DB987B3806B87BB88B356
S1130090806188BB08958FB9779BFECF8FB1089597
S11300A00E9441008FEF8ABB81EE94E00197F1F743
S11300B000C0000088B38F7E88BB00C0C0E0D0E0E1
S11300C00BC0FE01E05AFF4F80810E944B0091E279
S11300D09A95F1F700002196CD30D10594F388B3B9
S11300E0806188BB89EF90E00197F1F700C00000C0
S10900F0E1CFF894FFCFFC
S11100F653504920496E697469617465640051
S9030000FC
